{
  "contractName": "EIP712Forwarder",
  "abi": [
    {
      "inputs": [
        {
          "components": [
            {
              "internalType": "address",
              "name": "from",
              "type": "address"
            },
            {
              "internalType": "address",
              "name": "to",
              "type": "address"
            },
            {
              "internalType": "uint256",
              "name": "chainId",
              "type": "uint256"
            },
            {
              "internalType": "address",
              "name": "replayProtection",
              "type": "address"
            },
            {
              "internalType": "bytes",
              "name": "nonce",
              "type": "bytes"
            },
            {
              "internalType": "bytes",
              "name": "data",
              "type": "bytes"
            },
            {
              "internalType": "bytes32",
              "name": "innerMessageHash",
              "type": "bytes32"
            }
          ],
          "internalType": "struct Forwarder.Message",
          "name": "message",
          "type": "tuple"
        },
        {
          "internalType": "enum Forwarder.SignatureType",
          "name": "signatureType",
          "type": "uint8"
        },
        {
          "internalType": "bytes",
          "name": "signature",
          "type": "bytes"
        }
      ],
      "name": "forward",
      "outputs": [],
      "stateMutability": "payable",
      "type": "function",
      "payable": true
    },
    {
      "inputs": [
        {
          "components": [
            {
              "internalType": "address",
              "name": "to",
              "type": "address"
            },
            {
              "internalType": "bytes",
              "name": "data",
              "type": "bytes"
            },
            {
              "internalType": "uint256",
              "name": "value",
              "type": "uint256"
            }
          ],
          "internalType": "struct EIP712Forwarder.Call[]",
          "name": "calls",
          "type": "tuple[]"
        }
      ],
      "name": "batch",
      "outputs": [],
      "stateMutability": "payable",
      "type": "function",
      "payable": true
    },
    {
      "inputs": [
        {
          "internalType": "address",
          "name": "signer",
          "type": "address"
        },
        {
          "internalType": "bytes",
          "name": "nonce",
          "type": "bytes"
        }
      ],
      "name": "checkAndUpdateNonce",
      "outputs": [
        {
          "internalType": "bool",
          "name": "",
          "type": "bool"
        }
      ],
      "stateMutability": "nonpayable",
      "type": "function"
    },
    {
      "inputs": [
        {
          "internalType": "address",
          "name": "signer",
          "type": "address"
        },
        {
          "internalType": "uint128",
          "name": "batchId",
          "type": "uint128"
        }
      ],
      "name": "getNonce",
      "outputs": [
        {
          "internalType": "uint128",
          "name": "",
          "type": "uint128"
        }
      ],
      "stateMutability": "view",
      "type": "function",
      "constant": true
    }
  ],
  "bytecode": "0x608060405234801561001057600080fd5b50611eb5806100206000396000f3fe60806040526004361061003f5760003560e01c806364f5244914610044578063b35b046f14610060578063b44581d91461009d578063fc54a5b8146100da575b600080fd5b61005e6004803603810190610059919061119c565b6100f6565b005b34801561006c57600080fd5b5061008760048036038101906100829190611079565b61030d565b60405161009491906118ef565b60405180910390f35b3480156100a957600080fd5b506100c460048036038101906100bf91906110cd565b6104ed565b6040516100d19190611b9a565b60405180910390f35b6100f460048036038101906100ef9190611109565b610587565b005b61010383604001516106dc565b610142576040517f08c379a000000000000000000000000000000000000000000000000000000000815260040161013990611ada565b60405180910390fd5b61014d8383836106ed565b50600073ffffffffffffffffffffffffffffffffffffffff16836060015173ffffffffffffffffffffffffffffffffffffffff1614806101bc57503073ffffffffffffffffffffffffffffffffffffffff16836060015173ffffffffffffffffffffffffffffffffffffffff16145b15610217576101d38360000151846080015161030d565b610212576040517f08c379a000000000000000000000000000000000000000000000000000000000815260040161020990611b3a565b60405180910390fd5b6102f0565b826060015173ffffffffffffffffffffffffffffffffffffffff1663b35b046f846000015185608001516040518363ffffffff1660e01b815260040161025e9291906118bf565b602060405180830381600087803b15801561027857600080fd5b505af115801561028c573d6000803e3d6000fd5b505050506040513d601f19601f820116820180604052508101906102b0919061114a565b6102ef576040517f08c379a00000000000000000000000000000000000000000000000000000000081526004016102e690611b3a565b60405180910390fd5b5b61030883600001518460200151348660a00151610a06565b505050565b60008082806020019051810190610324919061121b565b90506000700100000000000000000000000000000000828161034257fe5b0490506000700100000000000000000000000000000000838161036157fe5b06905060008060008873ffffffffffffffffffffffffffffffffffffffff1673ffffffffffffffffffffffffffffffffffffffff1681526020019081526020016000206000846fffffffffffffffffffffffffffffffff166fffffffffffffffffffffffffffffffff16815260200190815260200160002060009054906101000a90046fffffffffffffffffffffffffffffffff169050806fffffffffffffffffffffffffffffffff16826fffffffffffffffffffffffffffffffff1614156104de57600181016000808973ffffffffffffffffffffffffffffffffffffffff1673ffffffffffffffffffffffffffffffffffffffff1681526020019081526020016000206000856fffffffffffffffffffffffffffffffff166fffffffffffffffffffffffffffffffff16815260200190815260200160002060006101000a8154816fffffffffffffffffffffffffffffffff02191690836fffffffffffffffffffffffffffffffff16021790555060019450505050506104e7565b60009450505050505b92915050565b60008060008473ffffffffffffffffffffffffffffffffffffffff1673ffffffffffffffffffffffffffffffffffffffff1681526020019081526020016000206000836fffffffffffffffffffffffffffffffff166fffffffffffffffffffffffffffffffff16815260200190815260200160002060009054906101000a90046fffffffffffffffffffffffffffffffff16905092915050565b3073ffffffffffffffffffffffffffffffffffffffff163373ffffffffffffffffffffffffffffffffffffffff16146105f5576040517f08c379a00000000000000000000000000000000000000000000000000000000081526004016105ec90611b1a565b60405180910390fd5b600060606000368080601f016020809104026020016040519081016040528093929190818152602001838380828437600081840152601f19601f820116905080830192505050505050509050600080369050905073ffffffffffffffffffffffffffffffffffffffff6000828401035116925060008090505b84518110156106d5576106c88486838151811061068757fe5b60200260200101516000015187848151811061069f57fe5b6020026020010151604001518885815181106106b757fe5b602002602001015160200151610a06565b808060010191505061066e565b5050505050565b600080469050808314915050919050565b600060606106fa85610aac565b905060028081111561070857fe5b84600281111561071457fe5b1415610834576320c13b0b60e01b7bffffffffffffffffffffffffffffffffffffffffffffffffffffffff1916856000015173ffffffffffffffffffffffffffffffffffffffff166320c13b0b83866040518363ffffffff1660e01b8152600401610780929190611a43565b60206040518083038186803b15801561079857600080fd5b505afa1580156107ac573d6000803e3d6000fd5b505050506040513d601f19601f820116820180604052508101906107d09190611173565b7bffffffffffffffffffffffffffffffffffffffffffffffffffffffff19161461082f576040517f08c379a000000000000000000000000000000000000000000000000000000000815260040161082690611a7a565b60405180910390fd5b6109fe565b6001600281111561084157fe5b84600281111561084d57fe5b141561097457631626ba7e60e01b7bffffffffffffffffffffffffffffffffffffffffffffffffffffffff1916856000015173ffffffffffffffffffffffffffffffffffffffff16631626ba7e8380519060200120866040518363ffffffff1660e01b81526004016108c09291906119ce565b60206040518083038186803b1580156108d857600080fd5b505afa1580156108ec573d6000803e3d6000fd5b505050506040513d601f19601f820116820180604052508101906109109190611173565b7bffffffffffffffffffffffffffffffffffffffffffffffffffffffff19161461096f576040517f08c379a000000000000000000000000000000000000000000000000000000000815260040161096690611b7a565b60405180910390fd5b6109fd565b6000610987828051906020012085610bc9565b9050856000015173ffffffffffffffffffffffffffffffffffffffff168173ffffffffffffffffffffffffffffffffffffffff16146109fb576040517f08c379a00000000000000000000000000000000000000000000000000000000081526004016109f290611afa565b60405180910390fd5b505b5b509392505050565b60008373ffffffffffffffffffffffffffffffffffffffff16838387604051602001610a3392919061180c565b604051602081830303815290604052604051610a4f91906117f5565b60006040518083038185875af1925050503d8060008114610a8c576040519150601f19603f3d011682016040523d82523d6000602084013e610a91565b606091505b5050905080610aa5573d806000803e806000fd5b5050505050565b6060604051610aba90611895565b6040518091039020604051610ace90611834565b6040518091039020604051610ae2906118aa565b6040518091039020604051602001610afc93929190611997565b60405160208183030381529060405280519060200120604051610b1e90611880565b60405180910390208360000151846020015134866040015187606001518860800151604051610b4d91906117de565b60405180910390208960a00151604051610b6791906117de565b60405180910390208a60c00151604051602001610b8c9998979695949392919061190a565b60405160208183030381529060405280519060200120604051602001610bb3929190611849565b6040516020818303038152906040529050919050565b60006041825114610c0f576040517f08c379a0000000000000000000000000000000000000000000000000000000008152600401610c0690611a9a565b60405180910390fd5b60008060006020850151925060408501519150606085015160001a9050601b8160ff161015610c3f57601b810190505b601b8160ff161480610c545750601c8160ff16145b610c93576040517f08c379a0000000000000000000000000000000000000000000000000000000008152600401610c8a90611b5a565b60405180910390fd5b60018682858560405160008152602001604052604051610cb694939291906119fe565b6020604051602081039080840390855afa158015610cd8573d6000803e3d6000fd5b505050602060405103519350600073ffffffffffffffffffffffffffffffffffffffff168473ffffffffffffffffffffffffffffffffffffffff161415610d54576040517f08c379a0000000000000000000000000000000000000000000000000000000008152600401610d4b90611aba565b60405180910390fd5b50505092915050565b600081359050610d6c81611de5565b92915050565b600082601f830112610d8357600080fd5b8135610d96610d9182611be2565b611bb5565b9150818183526020840193506020810190508360005b83811015610ddc5781358601610dc28882610ee2565b845260208401935060208301925050600181019050610dac565b5050505092915050565b600081519050610df581611dfc565b92915050565b600081359050610e0a81611e13565b92915050565b600081519050610e1f81611e2a565b92915050565b600082601f830112610e3657600080fd5b8135610e49610e4482611c0a565b611bb5565b91508082526020830160208301858383011115610e6557600080fd5b610e70838284611d57565b50505092915050565b600082601f830112610e8a57600080fd5b8135610e9d610e9882611c36565b611bb5565b91508082526020830160208301858383011115610eb957600080fd5b610ec4838284611d57565b50505092915050565b600081359050610edc81611e41565b92915050565b600060608284031215610ef457600080fd5b610efe6060611bb5565b90506000610f0e84828501610d5d565b600083015250602082013567ffffffffffffffff811115610f2e57600080fd5b610f3a84828501610e25565b6020830152506040610f4e8482850161104f565b60408301525092915050565b600060e08284031215610f6c57600080fd5b610f7660e0611bb5565b90506000610f8684828501610d5d565b6000830152506020610f9a84828501610d5d565b6020830152506040610fae8482850161104f565b6040830152506060610fc284828501610d5d565b606083015250608082013567ffffffffffffffff811115610fe257600080fd5b610fee84828501610e25565b60808301525060a082013567ffffffffffffffff81111561100e57600080fd5b61101a84828501610e25565b60a08301525060c061102e84828501610dfb565b60c08301525092915050565b60008135905061104981611e51565b92915050565b60008135905061105e81611e68565b92915050565b60008151905061107381611e68565b92915050565b6000806040838503121561108c57600080fd5b600061109a85828601610d5d565b925050602083013567ffffffffffffffff8111156110b757600080fd5b6110c385828601610e79565b9150509250929050565b600080604083850312156110e057600080fd5b60006110ee85828601610d5d565b92505060206110ff8582860161103a565b9150509250929050565b60006020828403121561111b57600080fd5b600082013567ffffffffffffffff81111561113557600080fd5b61114184828501610d72565b91505092915050565b60006020828403121561115c57600080fd5b600061116a84828501610de6565b91505092915050565b60006020828403121561118557600080fd5b600061119384828501610e10565b91505092915050565b6000806000606084860312156111b157600080fd5b600084013567ffffffffffffffff8111156111cb57600080fd5b6111d786828701610f5a565b93505060206111e886828701610ecd565b925050604084013567ffffffffffffffff81111561120557600080fd5b61121186828701610e79565b9150509250925092565b60006020828403121561122d57600080fd5b600061123b84828501611064565b91505092915050565b61124d81611cb0565b82525050565b61126461125f82611cb0565b611d99565b82525050565b61127381611cc2565b82525050565b61128281611cce565b82525050565b61129961129482611cce565b611dab565b82525050565b60006112aa82611c6d565b6112b48185611c78565b93506112c4818560208601611d66565b6112cd81611dc7565b840191505092915050565b60006112e382611c6d565b6112ed8185611c89565b93506112fd818560208601611d66565b80840191505092915050565b600061131482611c62565b61131e8185611c78565b935061132e818560208601611d66565b61133781611dc7565b840191505092915050565b600061134d82611c62565b6113578185611c89565b9350611367818560208601611d66565b80840191505092915050565b6000611380601683611c94565b91507f5349474e41545552455f313237315f494e56414c4944000000000000000000006000830152602082019050919050565b60006113c0600983611ca5565b91507f466f7277617264657200000000000000000000000000000000000000000000006000830152600982019050919050565b6000611400601883611c94565b91507f5349474e41545552455f494e56414c49445f4c454e47544800000000000000006000830152602082019050919050565b6000611440600283611ca5565b91507f19010000000000000000000000000000000000000000000000000000000000006000830152600282019050919050565b6000611480601683611c94565b91507f5349474e41545552455f5a45524f5f41444452455353000000000000000000006000830152602082019050919050565b60006114c0601083611c94565b91507f494e56414c49445f434841494e5f4944000000000000000000000000000000006000830152602082019050919050565b6000611500601683611c94565b91507f5349474e41545552455f57524f4e475f5349474e4552000000000000000000006000830152602082019050919050565b6000611540600e83611c94565b91507f464f525741524445525f4f4e4c590000000000000000000000000000000000006000830152602082019050919050565b6000611580600d83611c94565b91507f4e4f4e43455f494e56414c4944000000000000000000000000000000000000006000830152602082019050919050565b60006115c0608f83611ca5565b91507f4d6574615472616e73616374696f6e28616464726573732066726f6d2c61646460008301527f7265737320746f2c75696e743235362076616c75652c75696e7432353620636860208301527f61696e49642c61646472657373207265706c617950726f74656374696f6e2c6260408301527f79746573206e6f6e63652c627974657320646174612c6279746573333220696e60608301527f6e65724d657373616765486173682900000000000000000000000000000000006080830152608f82019050919050565b6000611698602883611ca5565b91507f454950373132446f6d61696e28737472696e67206e616d652c737472696e672060008301527f76657273696f6e290000000000000000000000000000000000000000000000006020830152602882019050919050565b60006116fe601383611c94565b91507f5349474e41545552455f494e56414c49445f56000000000000000000000000006000830152602082019050919050565b600061173e600183611ca5565b91507f31000000000000000000000000000000000000000000000000000000000000006000830152600182019050919050565b600061177e601683611c94565b91507f5349474e41545552455f313635345f494e56414c4944000000000000000000006000830152602082019050919050565b6117ba81611d04565b82525050565b6117c981611d40565b82525050565b6117d881611d4a565b82525050565b60006117ea8284611342565b915081905092915050565b600061180182846112d8565b915081905092915050565b600061181882856112d8565b91506118248284611253565b6014820191508190509392505050565b600061183f826113b3565b9150819050919050565b600061185482611433565b91506118608285611288565b6020820191506118708284611288565b6020820191508190509392505050565b600061188b826115b3565b9150819050919050565b60006118a08261168b565b9150819050919050565b60006118b582611731565b9150819050919050565b60006040820190506118d46000830185611244565b81810360208301526118e68184611309565b90509392505050565b6000602082019050611904600083018461126a565b92915050565b600061012082019050611920600083018c611279565b61192d602083018b611244565b61193a604083018a611244565b61194760608301896117c0565b61195460808301886117c0565b61196160a0830187611244565b61196e60c0830186611279565b61197b60e0830185611279565b611989610100830184611279565b9a9950505050505050505050565b60006060820190506119ac6000830186611279565b6119b96020830185611279565b6119c66040830184611279565b949350505050565b60006040820190506119e36000830185611279565b81810360208301526119f5818461129f565b90509392505050565b6000608082019050611a136000830187611279565b611a2060208301866117cf565b611a2d6040830185611279565b611a3a6060830184611279565b95945050505050565b60006040820190508181036000830152611a5d818561129f565b90508181036020830152611a71818461129f565b90509392505050565b60006020820190508181036000830152611a9381611373565b9050919050565b60006020820190508181036000830152611ab3816113f3565b9050919050565b60006020820190508181036000830152611ad381611473565b9050919050565b60006020820190508181036000830152611af3816114b3565b9050919050565b60006020820190508181036000830152611b13816114f3565b9050919050565b60006020820190508181036000830152611b3381611533565b9050919050565b60006020820190508181036000830152611b5381611573565b9050919050565b60006020820190508181036000830152611b73816116f1565b9050919050565b60006020820190508181036000830152611b9381611771565b9050919050565b6000602082019050611baf60008301846117b1565b92915050565b6000604051905081810181811067ffffffffffffffff82111715611bd857600080fd5b8060405250919050565b600067ffffffffffffffff821115611bf957600080fd5b602082029050602081019050919050565b600067ffffffffffffffff821115611c2157600080fd5b601f19601f8301169050602081019050919050565b600067ffffffffffffffff821115611c4d57600080fd5b601f19601f8301169050602081019050919050565b600081519050919050565b600081519050919050565b600082825260208201905092915050565b600081905092915050565b600082825260208201905092915050565b600081905092915050565b6000611cbb82611d20565b9050919050565b60008115159050919050565b6000819050919050565b60007fffffffff0000000000000000000000000000000000000000000000000000000082169050919050565b60006fffffffffffffffffffffffffffffffff82169050919050565b600073ffffffffffffffffffffffffffffffffffffffff82169050919050565b6000819050919050565b600060ff82169050919050565b82818337600083830152505050565b60005b83811015611d84578082015181840152602081019050611d69565b83811115611d93576000848401525b50505050565b6000611da482611db5565b9050919050565b6000819050919050565b6000611dc082611dd8565b9050919050565b6000601f19601f8301169050919050565b60008160601b9050919050565b611dee81611cb0565b8114611df957600080fd5b50565b611e0581611cc2565b8114611e1057600080fd5b50565b611e1c81611cce565b8114611e2757600080fd5b50565b611e3381611cd8565b8114611e3e57600080fd5b50565b60038110611e4e57600080fd5b50565b611e5a81611d04565b8114611e6557600080fd5b50565b611e7181611d40565b8114611e7c57600080fd5b5056fea26469706673582212206c25e98f598b9d2091991b8cb936074eb8b08605e11a4d8e5f2b91dcf86ebb2c64736f6c63430006040033",
  "source": "/* EIP-2585 Minimal Native Meta Transaction Forwarder\n * This standard defines a universal native meta transaction smart contract\n * that accept specially crafted Externally Owned Accounts (EOA) signed message\n * to forward to receiver contract via third parties.\n *\n * Written in 2020 by Ronan Sandford\n *\n * To the extent possible under law, the author(s) have dedicated all copyright\n * and related and neighboring rights to this software to the public domain\n * worldwide. This software is distributed without any warranty.\n *\n * You should have received a copy of the CC0 Public Domain Dedication along\n * with this software. If not, see\n * <https://creativecommons.org/publicdomain/zero/1.0/>.\n *\n *       .-''-.  .-./`) .-------.               .`````-.  ,--------.     .-''''-.  ,--------.\n *     .'_ _   \\ \\ .-.')\\  _(`)_ \\             /   ,-.  \\ |   _____|    /  _--.  \\ |   _____|\n *    / ( ` )   '/ `-' \\| (_ o._)|            (___/  |   ||  )          |_( )_ ' | |  )\n *   . (_ o _)  | `-'`\"`|  (_,_) /_ _    _ _        .'  / |  '----.     (_ o _). / |  '----.\n *   |  (_,_)___| .---. |   '-.-'( ' )--( ' )   _.-'_.-'  |_.._ _  '.  .'(_,_).  `.|_.._ _  '.\n *   '  \\   .---. |   | |   |   (_{;}_)(_{;}_)_/_  .'        ( ' )   \\|_( )_    \\  |  ( ' )   \\\n *    \\  `-'    / |   | |   |    (_,_)--(_,_)( ' )(__..--. _(_{;}_)  |(_ o _)   /  |_(_{;}_)  |\n *     \\       /  |   | /   )               (_{;}_)      ||  (_,_)  /  (_,_)..-' .'|  (_,_)  /\n *      `'-..-'   '---' `---'                (_,_)-------' `...__..'     `-....-'   `...__..'\n *\n */\npragma solidity 0.6.4;\npragma experimental ABIEncoderV2;\n\ninterface ERC1271 {\n    function isValidSignature(bytes calldata data, bytes calldata signature) external view returns (bytes4 magicValue);\n}\n\ninterface ERC1654 {\n   function isValidSignature(bytes32 hash, bytes calldata signature) external view returns (bytes4 magicValue);\n}\n\ninterface ReplayProtection {\n    function checkAndUpdateNonce(address signer, bytes calldata nonce) external returns (bool);\n}\n\ninterface Forwarder {\n\n    enum SignatureType { DIRECT, EIP1654, EIP1271 }\n\n    struct Message {\n        address from;\n        address to;\n        uint256 chainId;\n        address replayProtection;\n        bytes nonce;\n        bytes data;\n        bytes32 innerMessageHash;\n\t}\n\n    function forward(\n        Message calldata message,\n        SignatureType signatureType,\n        bytes calldata signature\n    ) external payable;\n}\n\nlibrary SigUtil {\n    function recover(bytes32 hash, bytes memory sig) internal pure returns (address recovered) {\n        require(sig.length == 65, \"SIGNATURE_INVALID_LENGTH\");\n\n        bytes32 r;\n        bytes32 s;\n        uint8 v;\n        assembly {\n            r := mload(add(sig, 32))\n            s := mload(add(sig, 64))\n            v := byte(0, mload(add(sig, 96)))\n        }\n\n        // Version of signature should be 27 or 28, but 0 and 1 are also possible versions\n        if (v < 27) {\n            v += 27;\n        }\n        require(v == 27 || v == 28, \"SIGNATURE_INVALID_V\");\n\n        recovered = ecrecover(hash, v, r, s);\n        require(recovered != address(0), \"SIGNATURE_ZERO_ADDRESS\");\n    }\n\n    function eth_sign_prefix(bytes32 hash) internal pure returns (bytes memory) {\n        return abi.encodePacked(\"\\x19Ethereum Signed Message:\\n32\", hash);\n    }\n}\n\n/// @notice Forwarder for Meta Transactions Using EIP712 Signing Standard, also implement default Replay Protection using 2 dimensional nonces\ncontract EIP712Forwarder is Forwarder, ReplayProtection {\n\n    // ///////////////////////////// FORWARDING EOA META TRANSACTION ///////////////////////////////////\n\n    bytes4 internal constant ERC1271_MAGICVALUE = 0x20c13b0b;\n    bytes4 internal constant ERC1654_MAGICVALUE = 0x1626ba7e;\n\n    /// @notice forward call from EOA signed message\n    /// @param message.from address from which the message come from (For EOA this is the same as signer)\n    /// @param message.to target of the call\n    /// @param message.replayProtection contract address that check and update nonce\n    /// @param message.nonce nonce value\n    /// @param message.data call data\n    /// @param message.innerMessageHash extra data hashed that can be used as embedded message for implementing more complex scenario, with one sig\n    /// @param signatureType signatureType either EOA, EIP1271 or EIP1654\n    /// @param signature signature\n    function forward(\n        Message memory message,\n        SignatureType signatureType,\n        bytes memory signature\n    ) public override payable { // external with ABIEncoderV2 Struct is not supported in solidity < 0.6.4\n        require(_isValidChainId(message.chainId), \"INVALID_CHAIN_ID\");\n        _checkSigner(message, signatureType, signature);\n        // optimization to avoid call if using default nonce strategy\n        // this contract implements a default nonce strategy and can be called directly\n        if (message.replayProtection == address(0) || message.replayProtection == address(this)) {\n            require(checkAndUpdateNonce(message.from, message.nonce), \"NONCE_INVALID\");\n        } else {\n            require(ReplayProtection(message.replayProtection).checkAndUpdateNonce(message.from, message.nonce), \"NONCE_INVALID\");\n        }\n\n        _call(message.from, message.to, msg.value, message.data);\n    }\n\n\n    // /////////////////////////////////// BATCH CALL /////////////////////////////////////\n\n    struct Call {\n        address to;\n        bytes data;\n        uint256 value;\n    }\n\n    /// @notice batcher function that can be called as part of a meta transaction (allowing to batch call atomically)\n    /// @param calls list of call data and destination\n    function batch(Call[] memory calls) public payable { // external with ABIEncoderV2 Struct is not supported in solidity < 0.6.4\n        require(msg.sender == address(this), \"FORWARDER_ONLY\");\n        address signer;\n        bytes memory data = msg.data;\n        uint256 length = msg.data.length;\n        assembly { signer := and(mload(sub(add(data, length), 0x00)), 0xffffffffffffffffffffffffffffffffffffffff) }\n        for(uint256 i = 0; i < calls.length; i++) {\n            _call(signer, calls[i].to, calls[i].value, calls[i].data);\n        }\n    }\n\n    // /////////////////////////////////// REPLAY PROTECTION /////////////////////////////////////\n\n    mapping(address => mapping(uint128 => uint128)) _batches;\n\n    /// @notice implement a default nonce stategy\n    /// @param signer address to check and update nonce for\n    /// @param nonce value of nonce sent as part of the forward call\n    function checkAndUpdateNonce(address signer, bytes memory nonce) public override returns (bool) {\n        // TODO? default nonce strategy could be different (maybe the most versatile : batchId + Nonce)\n        uint256 value = abi.decode(nonce, (uint256));\n        uint128 batchId = uint128(value / 2**128);\n        uint128 batchNonce = uint128(value % 2**128);\n\n        uint128 currentNonce = _batches[signer][batchId];\n        if (batchNonce == currentNonce) {\n            _batches[signer][batchId] = currentNonce + 1;\n            return true;\n        }\n        return false;\n    }\n\n    function getNonce(address signer, uint128 batchId) external view returns (uint128) {\n        return _batches[signer][batchId];\n    }\n\n\n    // ///////////////////////////////// INTERNAL ////////////////////////////////////////////\n\n    function _call(\n        address from,\n        address to,\n        uint256 value,\n        bytes memory data\n    ) internal {\n        (bool success,) = to.call.value(value)(abi.encodePacked(data, from));\n        if (!success) {\n            assembly {\n                let returnDataSize := returndatasize()\n                returndatacopy(0, 0, returnDataSize)\n                revert(0, returnDataSize)\n            }\n        }\n    }\n\n    function _checkSigner(\n        Message memory message,\n        SignatureType signatureType,\n        bytes memory signature\n    ) internal view returns (address) {\n        bytes memory dataToHash = _encodeMessage(message);\n        if (signatureType == SignatureType.EIP1271) {\n            require(ERC1271(message.from).isValidSignature(dataToHash, signature) == ERC1271_MAGICVALUE, \"SIGNATURE_1271_INVALID\");\n        } else if(signatureType == SignatureType.EIP1654){\n            require(ERC1654(message.from).isValidSignature(keccak256(dataToHash), signature) == ERC1654_MAGICVALUE, \"SIGNATURE_1654_INVALID\");\n        } else {\n            address signer = SigUtil.recover(keccak256(dataToHash), signature);\n            require(signer == message.from, \"SIGNATURE_WRONG_SIGNER\");\n        }\n    }\n\n    function _isValidChainId(uint256 chainId) internal view returns (bool) {\n        uint256 _chainId;\n        assembly {_chainId := chainid() }\n        return chainId == _chainId;\n    }\n\n    bytes32 constant EIP712DOMAIN_TYPEHASH = keccak256(\n        \"EIP712Domain(string name,string version)\"\n    );\n    bytes32 constant DOMAIN_SEPARATOR = keccak256(\n        abi.encode(\n            EIP712DOMAIN_TYPEHASH,\n            keccak256(\"Forwarder\"),\n            keccak256(\"1\")\n        )\n    );\n\n    bytes32 constant METATRANSACTION_TYPEHASH = keccak256(\n        \"MetaTransaction(address from,address to,uint256 value,uint256 chainId,address replayProtection,bytes nonce,bytes data,bytes32 innerMessageHash)\"\n    );\n\n    function _encodeMessage(Message memory message) internal view returns (bytes memory) {\n        return abi.encodePacked(\n            \"\\x19\\x01\",\n            DOMAIN_SEPARATOR,\n            keccak256(abi.encode(\n                METATRANSACTION_TYPEHASH,\n                message.from,\n                message.to,\n                msg.value,\n                message.chainId,\n                message.replayProtection,\n                keccak256(message.nonce),\n                keccak256(message.data),\n                message.innerMessageHash\n            ))\n        );\n    }\n}\n",
  "sourcePath": "/home/safu/ethereum/maticUniswap/forgit/EIP2585Try/contracts/EIP2585Forwader.sol",
  "compiler": {
    "name": "solc",
    "version": "0.6.4+commit.1dca32f3.Emscripten.clang"
  },
  "schemaVersion": "3.0.23",
  "updatedAt": "2020-04-11T10:40:50.955Z",
  "networkType": "ethereum",
  "devdoc": {
    "methods": {
      "batch((address,bytes,uint256)[])": {
        "params": {
          "calls": "list of call data and destination"
        }
      },
      "checkAndUpdateNonce(address,bytes)": {
        "params": {
          "nonce": "value of nonce sent as part of the forward call",
          "signer": "address to check and update nonce for"
        }
      },
      "forward((address,address,uint256,address,bytes,bytes,bytes32),uint8,bytes)": {
        "params": {
          "message": ".innerMessageHash extra data hashed that can be used as embedded message for implementing more complex scenario, with one sig",
          "signature": "signature",
          "signatureType": "signatureType either EOA, EIP1271 or EIP1654"
        }
      }
    }
  },
  "userdoc": {
    "methods": {
      "batch((address,bytes,uint256)[])": {
        "notice": "batcher function that can be called as part of a meta transaction (allowing to batch call atomically)"
      },
      "checkAndUpdateNonce(address,bytes)": {
        "notice": "implement a default nonce stategy"
      },
      "forward((address,address,uint256,address,bytes,bytes,bytes32),uint8,bytes)": {
        "notice": "forward call from EOA signed message"
      }
    },
    "notice": "Forwarder for Meta Transactions Using EIP712 Signing Standard, also implement default Replay Protection using 2 dimensional nonces"
  }
}