{
  "contractName": "ERC20Token",
  "abi": [
    {
      "inputs": [
        {
          "internalType": "address",
          "name": "forwarder",
          "type": "address"
        }
      ],
      "stateMutability": "nonpayable",
      "type": "constructor"
    },
    {
      "inputs": [
        {
          "internalType": "address",
          "name": "",
          "type": "address"
        }
      ],
      "name": "balances",
      "outputs": [
        {
          "internalType": "uint256",
          "name": "",
          "type": "uint256"
        }
      ],
      "stateMutability": "view",
      "type": "function",
      "constant": true
    },
    {
      "inputs": [],
      "name": "mint",
      "outputs": [],
      "stateMutability": "nonpayable",
      "type": "function"
    }
  ],
  "bytecode": "0x608060405234801561001057600080fd5b506040516102ae3803806102ae8339818101604052602081101561003357600080fd5b810190808051906020019092919050505080806000806101000a81548173ffffffffffffffffffffffffffffffffffffffff021916908373ffffffffffffffffffffffffffffffffffffffff1602179055505050610218806100966000396000f3fe608060405234801561001057600080fd5b50600436106100365760003560e01c80631249c58b1461003b57806327e235e314610045575b600080fd5b61004361009d565b005b6100876004803603602081101561005b57600080fd5b81019080803573ffffffffffffffffffffffffffffffffffffffff1690602001909291905050506100f4565b6040518082815260200191505060405180910390f35b6001600260006100ab61010c565b73ffffffffffffffffffffffffffffffffffffffff1673ffffffffffffffffffffffffffffffffffffffff16815260200190815260200160002060008282540192505081905550565b60026020528060005260406000206000915090505481565b60008060009054906101000a900473ffffffffffffffffffffffffffffffffffffffff1673ffffffffffffffffffffffffffffffffffffffff163373ffffffffffffffffffffffffffffffffffffffff1614156101db5760606000368080601f016020809104026020016040519081016040528093929190818152602001838380828437600081840152601f19601f820116905080830192505050505050509050600080369050905073ffffffffffffffffffffffffffffffffffffffff6000828401035116925050506101df565b3390505b9056fea264697066735822122073af0fcaabb76c82c02530ba0e20cff6bc9230f2d5edea5d4bb5c2ec73ca765c64736f6c63430006040033",
  "source": "pragma solidity 0.6.4;\nimport \"./ForwarderReceiverBase.sol\";\n\ncontract ERC20Token is ForwarderReceiverBase{\n    string name;\n    mapping(address => uint256) public balances;\n\n    constructor(address forwarder) ForwarderReceiverBase(forwarder) public{}\n    function mint() public {\n        balances[_getTxSigner()] += 1;\n    }\n}\n",
  "sourcePath": "/home/safu/ethereum/maticUniswap/forgit/EIP2585Try/contracts/try.sol",
  "compiler": {
    "name": "solc",
    "version": "0.6.4+commit.1dca32f3.Emscripten.clang"
  },
  "schemaVersion": "3.0.23",
  "updatedAt": "2020-04-11T10:40:50.964Z",
  "networkType": "ethereum",
  "devdoc": {
    "methods": {}
  },
  "userdoc": {
    "methods": {}
  }
}